:020000020000FC
:100000000C94BD040C949C050C9477050C94BD04D1
:100010000C94BD040C94BD040C9471060C94BD04A6
:100020000C94BD040C94BD040C94BD040C94BD044C
:100030000C94BD040C94BD040C94BD040C94BD043C
:100040000C9438050C94BD040C94BD040C94BD04B0
:100050000C94BD040C94BD040C94BD040C94BD041C
:100060000C94BD040C94BD04436F756E74657220CE
:1000700059542076312E303204004E6F2070756C4A
:1000800073652E202020202020200400536574203A
:10009000746F2044656661756C742020040057619C
:1000A0006974696E672E2E2E2020202020200400E7
:1000B00047617465203130303030730447617465B6
:1000C00020313030307304004C6173742046726507
:1000D0007175656E6379203D0400303132333435FB
:1000E0003637383941424344454603E008B91ED00B
:1000F00003E008B91BD003E008B918D002E008B942
:1001000015D002E008B912D09CD008E008B90ED092
:1001100000E008B90BD00CE008B908D000E008B93D
:1001200005D006E008B902D00BD008954598449A4E
:1001300088D044980895459A449A7DD0449808956B
:1001400000E008B9F3DF01E008B9F0DF089508E046
:1001500008B9ECDF00E008B9E9DF08950CE008B960
:10016000E5DF00E008B9E2DF089508E008B9DEDF66
:100170000CE008B9DBDF089500E20BD008950F937F
:1001800010E11F9300E205D01F911A95D1F70F914E
:1001900008950F93102F02950F701F7008B9CBDFD1
:1001A00018B9C9DF0F9108950F930093210113E04F
:1001B00018B9C1DF0091210110EF0123029508B9A0
:1001C000BADF13E018B9B7DF009121011FE0012366
:1001D00008B9B1DF0F9108950F930093210113E047
:1001E00018B9A9DF0091210110EF0123029508B988
:1001F000A2DF0F9108950F930093210113E018B926
:100200009ADF009121011FE0012308B994DF0F91CB
:100210000895C895002D043069F0002D0E94FF025A
:10022000102D02950F701F7008B985DF18B983DF94
:100230003196EFCF089526EA2A95F1F700000000E5
:10024000089531E229EC2A95F1F73A95D9F7089506
:1002500019E02CEB34EC3A95F1F72A95D9F71A9579
:10026000C1F7089510E128EF3BEF3A95F1F72A9591
:10027000D9F71A95C1F70895F0E1F4DFA895FA953A
:10028000E1F7089564DFF0E0E0EBC3DF08955FDF9E
:10029000F0E0ECEBBEDF08950F930F9302950F7023
:1002A000F0E0EAEDE00F08F4F395C895002D71DF5A
:1002B0000F910F70F0E0EAEDE00F08F4F395C895A8
:1002C000002D67DF0F9108952098289808955F9A70
:1002D00008955F9808955E9A08955E980895882716
:1002E000579F402C512C469F202C312C569F300C70
:1002F000411C581E479F300C411C581E0895400F4A
:10030000511F621F731F0895112722273327BB2710
:10031000AA279927881BC1E2779567955795479536
:10032000CA9551F020F4800F911FA21FB31FB795FB
:10033000A79597958795F0CF089500271127222735
:100340003327442755276627772788279927AA2701
:10035000BB27CC27DD27EE27FF270895A89572E459
:1003600086ED9BEE9A95F1F78A95D9F77A95C1F7C4
:1003700073E07A95F1F700000895F1E0E0E00027DE
:10038000019300E013E0E017F107C9F70895DD27B6
:10039000CC2755276627772788279927AA27C8E2D9
:1003A0000ED0000F111F221F331F441F551F661F41
:1003B000771F881F991FAA1FCA9591F708955F9309
:1003C0005F70553010F05D5FD52FD52F5F91507F56
:1003D000503508F0505D5D0F6F936F70653010F011
:1003E0006D5FD62FD62F6F91607F603508F0605D0E
:1003F0006D0F7F937F70753010F07D5FD72FD72FF3
:100400007F91707F703508F0705D7D0F8F938F70D6
:10041000853010F08D5FD82FD82F8F91807F803559
:1004200008F0805D8D0F9F939F70953010F09D5F59
:10043000D92FD92F9F91907F903508F0905D9D0F17
:10044000AF93AF70A53010F0AD5FDA2FDA2FAF9118
:10045000A07FA03508F0A05DAD0F089511272227D9
:10046000332788279927AA27BB1BC1E2441F551FA2
:10047000661F771FCA9571F0881F991FAA1FBB1F9F
:10048000801B910BA20BB30B88F7800F911FA21F4B
:10049000B31FECCF40955095609570950895F999EC
:1004A000FECF112711BD12BDF1E0EBE2019100BDBD
:1004B00004E00FBBFA9AF99AF999FECF139511BD92
:1004C0001230A1F711270895F999FECF1127009155
:1004D00034010F3F19F402E000933401112712BDDB
:1004E00001BDF1E0E9E0019100BD04E00FBBFA9A23
:1004F000F99AF999FECF139511BD1130A1F700912A
:1005000034010395009334010895F999FECFAA2789
:10051000BB27A1BDB2BDF1E0EBE2F89AF899FECF9E
:1005200000B501931196A1BDB2BDA230B1F70895F7
:10053000BB27AA27F999FECFB2BDA1BD0FEF00BD21
:10054000FA9AF99AA395B1F70895FADD00DEF0E082
:10055000E8EC5FDE91DEF4DDFADDECD1F999FECF57
:10056000CC27A0913401AA95BB27A13009F1A1BDE8
:10057000B2BDF89AF899FECF00B58EDEE6D1AA9505
:10058000A1BDA130A9F0C395C83099F7CC27E6DD0D
:10059000F999FECFCC27F89AF899FECF00B57CDE0A
:1005A000D4D1AA95A1BDA13019F0C395C83099F74F
:1005B0000E949A0461DE089503B10870003019F0BA
:1005C00010E000E402C010E001E81093C5000093C1
:1005D000C40008E10093C10006E00093C20002E0FD
:1005E0000E94FF020E949A0403E00E94FF02089505
:1005F0001091C00017FFFCCF0091C6000895109124
:10060000C00015FFFCCF0093C6000895A895F0DF49
:100610000734E1F7EDDF0734C9F7EADF0134B1F75A
:100620002227E6DF0C32E9F723952730D1F7E0DF08
:1006300000933601DDDF0093370108950091360104
:100640000053000F000F000F000F109137011053DF
:10065000010F033024F40BB10F770BB908950BB1E0
:1006600000680BB908950091C00007FF0895CEDF20
:100670007CDD03E58EDD0E94FF020DE38ADD0E9432
:10068000FF020091360185DD0E94FF0200913701D3
:1006900080DD0E94FF02009136010053000F000F21
:1006A000000F000F109137011053010F033014F4A5
:1006B0005F9808955F9A089543DD0091C00007FF99
:1006C0000895AAE096D043DD35D10091200261DD86
:1006D0000E94FF02009121025CDD0E94FF020AE3FA
:1006E00058DD0E94FF020091220253DD0E94FF02AA
:1006F000009123024EDD0E94FF020AE34ADD0E94C0
:10070000FF020091240245DD0E94FF0200912502B4
:1007100040DD0E94FF0230DD0E949F0405E539DDC7
:100720000E94FF0204E535DD0E94FF0203E431DD93
:100730000E94FF020091C00007FFFCCFAA9511F6AE
:10074000FFDC0E949A04AAE078D001DDF3D0F2E049
:10075000E0E422E00190002D0C32E1F72A95D1F778
:100760000190002D16DD0E94FF020190002D11DD89
:100770000E94FF0207E20DDD0E94FF020190002DA2
:100780000C3221F006DD0E94FF02F8CFF5DCD7D055
:100790000190002DFEDC0E94FF02E0DC0E949A0422
:1007A00001900190002DF5DC0E94FF020190002DC8
:1007B000F0DC0E94FF020190002DEBDC0E94FF02A2
:1007C00007E2E7DC0E94FF020190002D0C3221F0CD
:1007D000E0DC0E94FF02F8CFCFDCB1D00190002D09
:1007E000D8DC0E94FF020E949A04AA9509F4089599
:1007F000ABCFA895FDDE0734E1F7FADE0734C9F781
:10080000F7DE0134B1F72227F3DE0C32E9F7239546
:100810002130D1F7EDDE00932002EADE00932102C1
:10082000E7DE00932202E4DE00932302E1DE009380
:100830002402DEDE009325020895A895D9DE073450
:10084000E1F7D6DE0734C9F7D3DE0134B1F7F2E0C1
:10085000E0E4CEDE002E0192043209F0FACF0895D2
:1008600000912201003011F46AD003C000912201EE
:1008700051D0009123013FD0009124013CD0009140
:10088000250139D00091260140D00EE2B8DE00915A
:10089000260140D0009127012ED051D008E4AFDED0
:1008A0000AE7ADDE0E949A04089500912201007FBC
:1008B000003011F444D003C00091220126D00091F1
:1008C000220128D00091230116D00091240113D0D9
:1008D0000091250110D00EE292DE009126010BD08E
:1008E0000091270108D02BD008E489DE0AE787DED3
:1008F0000E949A0408950F9302950F70005D7FDEA9
:100900000F910F70005D7BDE089502950F70005D02
:1009100076DE08950F70005D72DE0895C895002D93
:10092000043021F0002D6BDE3196F8CF08950CE2F3
:1009300066DE08950DE063DE0AE061DE08950F9340
:1009400000E20E94FF020F9108950F930F9302950A
:100950000F70F0E0EAEDE00F08F4F395C895002D74
:100960004EDE0F910F70F0E0EAEDE00F08F4F39522
:10097000C895002D44DE0F9108950FEF0DBF08E0DC
:100980000EBFFBDCD4D1D9DC03E104B9009505B975
:100990000FEF07B902EE0AB900950BB9002708B9A5
:1009A00093DC00E00DBB0BE00093690002E00093D4
:1009B000340102DE9ADBC4DBCADBF0E0E8E629DCC6
:1009C000B9DF5ADCBDDB0FEF009387000FEF009318
:1009D000860002E80093800009E10093810004E8AA
:1009E000009389000DE1009388004B9909C0A8DBB2
:1009F000AEDBF0E0ECE80DDC0E949A0499DD3CDC13
:100A000001E000936E0000E005BD002706BDA8953B
:100A100008E10093600006E40093600091DB1ED0C3
:100A200000910401013009F40CC02CDCA5DB7FDF50
:100A30001ADE7DDF00E100932E0107E200932F0113
:100A400084C125DC99DB98DB72DF0DDE70DF08EEF8
:100A500000932E0103E000932F0177C14C9B04C04B
:100A600001E0009304010895002700930401089514
:100A70000FEFA017B007B9F11196009104010F9381
:100A8000EDDF109104010F91011751F026DC52DFC8
:100A9000E19A02E00CBB00E005BD01E005BB16C118
:100AA000009127020395009327020F3FD9F400918C
:100AB00028020395009328020430A1F40BB106FF2D
:100AC00009C00BB10F7B0BB90027009327020093DD
:100AD000280218950BB100640BB900270093270278
:100AE0000093280218952196AA27BB2718950E94E3
:100AF0009A04A895002700933801209828980BB1F4
:100B00000F7B0BB9D9DD21DD29DCA895E19A02E044
:100B10000CBB00E005BD002706BD0093000100935B
:100B200001010BDC01E005BBE19A02E00CBB00E037
:100B300005BD01E005BBCAC0009101011091000193
:100B400020912F0130912E011317020769F0A8950B
:100B500001E005BDF0910101E09100013196F093B3
:100B60000101E0930001189500E005BD0027009306
:100B7000010100930001A895F8940BB10F7B0BB90C
:100B80005B2F4A2F71E060E0AADB2F923F924F92D9
:100B90005F92DF93CF93D1DBCF91DF914C2F5D2F0D
:100BA00031E0B5DB3F912F911F910F919927400FB5
:100BB000511F621F731F891F06B511272227332774
:100BC0009927400F511F621F731F891FA89B0CC0DC
:100BD00001E005BB002711E0222733279927400FAA
:100BE000511F621F731F891F4093090150930A010F
:100BF00060930B0170930C0180930D0140910D01E6
:100C000030910C0120910B0110910A010091090112
:100C1000BEDB5093270160932601709325018093DA
:100C2000240190932301A093220198DAA8DA96DA9E
:100C300000910401013029F513DE009122010030FA
:100C400011F49ADA03C000912201D5DA0091230150
:100C5000ABDA00912401A8DA00912501A5DA009110
:100C60002601BADA0EE295DA00912601C4DA009183
:100C700027019ADA81DA80DA08E48BDA0AE789DA7E
:100C800024D013DE00912201007F003011F474DAC9
:100C900003C000912201A0DA00912201ACDA009198
:100CA000230182DA009124017FDA009125017CDAA8
:100CB0000EE26FDA0091260177DA0091270174DAEB
:100CC0005BDA08E466DA0AE764DAFEDB36DB06BDE7
:100CD00000930001009301010FEF0DBF08E00EBF6C
:100CE0009ECEF894A8950BB10F730BB90E94A70084
:100CF0000E949A04F0E0EAE70E9409010E94AE0017
:100D00000E949A04F0E0EEE984DA0E949A04B4DAD0
:100D100001E005BB00E005BD10DB002706BD009328
:100D2000000100930101A8954A99FDCF77CEF89470
:100D3000A89504B7077F04BF009160000861009385
:100D4000600000E000936000089502E00DBBA895EC
:100D500004B7077F04BF789401DBA895FFDAA89554
:100D60004A99FECFA8954A9BFECFA895E6DA03E004
:100D70000CBB03E00DBBA8950000000000000000C4
:100D80000000000000000000000000000000000063
:100D90000000000000000000000000000000000053
:100DA0000000000000000000000000000000000043
:100DB0000000000000000000000000000000000033
:081D700000000000000000C8A3
:00000001FF
